:020000040800F2
:10000000E804002045010008F3020008B5020008DA
:10001000F1020008AF010008D90700080000000045
:10002000000000000000000000000000890400083B
:10003000B1010008000000009D0300081D05000834
:100040005F0100085F0100085F0100085F01000810
:100050005F0100085F0100085F0100085F01000800
:100060005F0100085F0100085F0100085F010008F0
:100070005F0100085F0100085F0100085F010008E0
:100080005F0100085F0100085F0100085F010008D0
:100090005F0100085F0100085F0100085F010008C0
:1000A0005F0100085F0100085F0100085F010008B0
:1000B0005F0100085F0100085F0100085F010008A0
:1000C0005F0100085F0100085F0100085F01000890
:1000D0005F01000861050008F90500085F010008DC
:1000E0005F0100085F0100085F0100085F01000870
:1000F0005F0100085F0100085F0100085F01000860
:100100005F0100085F0100085F0100085F0100084F
:100110005F0100085F0100085F0100085F0100083F
:100120005F0100085F0100085F0100085F0100082F
:10013000DFF80CD000F018F800480047F907000875
:10014000E80400200648804706480047FEE7FEE72F
:10015000FEE7FEE7FEE7FEE7FEE7FEE7FEE7FEE777
:100160002105000831010008064C074D06E0E06853
:1001700040F0010394E8070098471034AC42F6D3EE
:10018000FFF7DAFFE80800080809000810B507E0E3
:1001900003780C78A34201D0002010BD401C491CFC
:1001A0001300A2F1010292B2F2D1012010BDFEE7CC
:1001B0007047000038B54FF48060ADF80000114D75
:1001C00004248DF803406946284600F01DF80820F5
:1001D000ADF800006946284600F016F8E001ADF8D9
:1001E000000003208DF8020018208DF803006946F6
:1001F000284600F009F8ADF800406946284600F0AE
:1002000003F838BD000801402DE9F041CA78002507
:10021000D30602F00F0201D58B781A430B884FF0FA
:100220000F084FF0010C13F0FF0F1CD0D0F8004066
:100230000E880CFA05F31E409E4210D1AF0008FA5A
:1002400007F624EA060602FA07F43443CE78282E8D
:1002500002D0482E02D002E0436100E003616D1C31
:10026000082DE5D304600B88FF2B1DD944680025B9
:1002700005F108060CFA06F30E881E409E420FD1C7
:10028000AF0008FA07F624EA060602FA07F4344338
:10029000CE78282E00D14361CE78482E00D103615C
:1002A0006D1C082DE4D34460BDE8F08141617047C6
:1002B00001617047FEE7000070B50121802000F069
:1002C0007BF809484FF4707410210480C170032139
:1002D0008170064D01462846FFF796FF21462846C5
:1002E000BDE87040FFF7E4BF04000020001C01409F
:1002F000FEE7704738B54FF4E06000F045F8252080
:100300008DF8000000208DF8020001248DF80340D4
:10031000684600F00BF826208DF800008DF80240AA
:100320008DF80340684600F001F838BDF0B50F22A3
:10033000C57803784FF0E0210124E5B1D1F80C5DD8
:10034000467805F4E065C5F5E0652D0AC5F10407BA
:10035000EA408578BE40154035430B442A0183F8B6
:1003600000240078420900F01F00844001EB820065
:10037000C0F80041F0BD03F01F008440580901EBB4
:100380008000C0F88041F0BD02490843024908607E
:10039000704700000000FA050CED00E07047000017
:1003A000044A0029D16901D0014300E08143D161B1
:1003B0007047000000100240044A0029916901D0F2
:1003C000014300E08143916170470000001002404A
:1003D00010B501210520FFF7EFFF01218803FFF78A
:1003E000EBFF0121BDE810404804FFF7D9BF000032
:1003F000214910B54B68214A13F00C0303D0042B9C
:1004000001D0082B26D002604A681D4B02F0F00292
:1004100012099C5C0268E24042604C6804F4E064AB
:10042000240A1C5D22FA04F484604C6804F46054CD
:100430004FEAD4241B5D22FA03F2C2604968104BD4
:1004400001F440414FEA91311B1F595CB2FBF1F1BD
:10045000016110BD4A684B68022402F4701204EB7B
:10046000924213F4803F02D04B689B0301D5054BA9
:1004700000E0024B5A43C6E70010024000127A0027
:100480006900002000093D0070470000214800215C
:10049000026842F4803202604FF4A0630268491C93
:1004A00012F4003F01D19942F8D10168890330D597
:1004B00019490A6842F010020A600A6822F0030231
:1004C0000A600A6842F002020A60416841604168BD
:1004D0004160416841F480614160416821F47C11D0
:1004E0004160416841F4E8114160016841F0807168
:1004F000016001688901FCD5416821F00301416078
:10050000416841F0020141604168C1F38101022963
:10051000FAD17047001002400020024070470000EE
:100520000C48016841F00101016041680A4A11402C
:1005300041600168094A11400160016821F480218D
:100540000160416821F4FE0141604FF41F018160A8
:10055000FFF79CBF001002400000FFF8FFFFF6FE0F
:1005600070B51E4C40F225552946204600F09AF8F9
:1005700098B1204600F028F9194B1A78194911440E
:10058000521C1A700870187817490978884204D1EB
:1005900000222946204600F0A4F840F2277529469B
:1005A0002646204600F07EF8002815D00F4C227811
:1005B0000F481044521C22700178304600F008F9B0
:1005C00020780C490978884206D129463046BDE892
:1005D0007040002200F085B870BD00000038014076
:1005E000000000208C00002064000020600000203B
:1005F000080000206200002070B51E4C40F2255516
:100600002946204600F04EF898B1204600F0DCF86C
:10061000194B1A7819491144521C1A70087018782D
:1006200017490978884204D100222946204600F063
:1006300058F840F2277529462646204600F032F841
:10064000002815D00F4C22780F481044521C2270FD
:100650000178304600F0BCF820780C4909788842CF
:1006600006D129463046BDE87040002200F039B876
:1006700070BD00000044004001000020B7000020D1
:10068000640000206100002034000020630000208E
:100690000029818902D041F4005101E021F4005188
:1006A0008181704770B501F01F0601220025C1F35A
:1006B000421302FA06F4012B0FD0022B0FD0838ACB
:1006C0004FEA11210088234202FA01F200EA0200F7
:1006D00001D000B10125284670BD8389F0E7038A67
:1006E000EEE710B5C1F3421301F01F040121A14050
:1006F000012B07D0022B07D01430002A026805D046
:100700000A4304E00C30F8E71030F6E78A43026051
:1007100010BD000030B50446008A85B00D464CF689
:10072000FF710840E98801432182A1894EF6F31048
:100730000140A8882A8910436A890A431043A0818E
:10074000A08A4FF6FF410840A9890143A18268466B
:10075000FFF74EFE1B48844201D1039800E0029847
:10076000A1890904002900EBC00101EB00102968F0
:1007700002DA4FEA410101E04FEA8101B0FBF1F0FA
:100780006422B0FBF2F14FEA01114FEA11136FF04E
:1007900018056B43A58900EB83004FF032032D044D
:1007A00006D503EBC000B0FBF2F000F0070005E057
:1007B00003EB0010B0FBF2F000F00F0008432081C3
:1007C00005B030BD003801408088C0F30800704794
:1007D000C1F3080181807047FEE702E008C8121FDC
:1007E00008C1002AFAD170477047002001E001C11A
:1007F000121F002AFBD17047FFF7EAFDFFF77AFDD1
:10080000FFF75AFDFFF7D6FC32484FF4E131324C86
:10081000016000218180C180018181810C214181A1
:1008200001462046FFF776FF2C4D2A492846FFF760
:1008300071FF40F22556012231462046FFF751FF55
:1008400040F22777012239462046FFF74AFF01226E
:1008500031462846FFF745FF012239462846FFF773
:1008600040FF01212046FFF713FF01212846FFF733
:100870000FFF1B4C60782B28FCD320782B28FCD34F
:10088000144917482B2210313430FFF77FFCA07039
:10089000104913482B223B310830FFF777FCE070FA
:1008A000104DAE15A078012802D0A07810B105E057
:1008B000402100E080212846FFF7F8FCE07801287D
:1008C00002D0E0780028EDD131462846FFF7EEFC53
:1008D000E8E700007C0000200038014000440040B0
:1008E00000000020001C0140080900080000002052
:1008F0007C000000DA070008840900087C00002062
:100900006C040000EA07000800000000000000007E
:10091000B4AEBFDAD6D0B6CFCAD5B7A2CABEC0FD74
:100920003A20B4AEBFDA31202D3E20B4AEBFDA3269
:100930002028D6D0B6CFCAD5B7A22900B4AEBFDA28
:10094000D6D0B6CFCAD5B7A2CABEC0FD3A20B4AE83
:10095000BFDA32202D3E20B4AEBFDA312028D6D007
:10096000B6CFCAD5B7A2290000002B2B2B02040654
:100970000800000000010203040102030406070846
:04098000090000006A
:0400000508000131BD
:00000001FF
