:020000040800F2
:10000000E004002045010008D9020008D5020008DC
:10001000D7020008AF010008C9070008000000006F
:10002000000000000000000000000000790400084B
:10003000B101000800000000850300080D0500085C
:100040005F0100085F0100085F0100085F01000810
:100050005F0100085F0100085F0100085F01000800
:100060005F0100085F0100085F0100085F010008F0
:100070005F0100085F0100085F0100085F010008E0
:100080005F0100085F0100085F0100085F010008D0
:100090005F0100085F0100085F0100085F010008C0
:1000A0005F0100085F0100085F0100085F010008B0
:1000B0005F0100085F0100085F0100085F010008A0
:1000C0005F0100085F0100085F0100085F01000890
:1000D0005F01000851050008E90500085F010008FC
:1000E0005F0100085F0100085F0100085F01000870
:1000F0005F0100085F0100085F0100085F01000860
:100100005F0100085F0100085F0100085F0100084F
:100110005F0100085F0100085F0100085F0100083F
:100120005F0100085F0100085F0100085F0100082F
:10013000DFF80CD000F018F800480047E907000885
:10014000E00400200648804706480047FEE7FEE737
:10015000FEE7FEE7FEE7FEE7FEE7FEE7FEE7FEE777
:100160001105000831010008064C074D06E0E06863
:1001700040F0010394E8070098471034AC42F6D3EE
:10018000FFF7DAFFDC080008FC08000810B507E0FC
:1001900003780C78A34201D0002010BD401C491CFC
:1001A0001300A2F1010292B2F2D1012010BDFEE7CC
:1001B00070470000F8B54FF48060ADF80000184EAD
:1001C00004248DF803406946304600F02DF80820DD
:1001D000ADF800006946304600F026F8E001ADF8C1
:1001E000000003258DF8025018208DF803006946A1
:1001F000304600F019F8ADF800406946304600F08E
:1002000013F84FF47070ADF8000010208DF8030063
:100210008DF802506946034800F006F8F8BD00006A
:1002200000080140001C01402DE9F041CA7800257A
:10023000D30602F00F0201D58B781A430B884FF0DA
:100240000F084FF0010C13F0FF0F1CD0D0F8004046
:100250000E880CFA05F31E409E4210D1AF0008FA3A
:1002600007F624EA060602FA07F43443CE78282E6D
:1002700002D0482E02D002E0436100E003616D1C11
:10028000082DE5D304600B88FF2B1DD94468002599
:1002900005F108060CFA06F30E881E409E420FD1A7
:1002A000AF0008FA07F624EA060602FA07F4344318
:1002B000CE78282E00D14361CE78482E00D103613C
:1002C0006D1C082DE4D34460BDE8F08141617047A6
:1002D00001617047FEE7FEE7704738B54FF4E06014
:1002E00000F046F825208DF8000000208DF802006F
:1002F00001248DF80340684600F00BF826208DF8A5
:1003000000008DF802408DF80340684600F001F8C7
:1003100038BDF0B50F22C57803784FF0E0210124F5
:10032000E5B1D1F80C5D467805F4E065C5F5E0650A
:100330002D0AC5F10407EA408578BE4015403543D3
:100340000B442A0183F800240078420900F01F00C2
:10035000844001EB8200C0F80041F0BD03F01F00B3
:100360008440580901EB8000C0F88041F0BD0000D6
:100370000249084302490860704700000000FA057E
:100380000CED00E070470000044A0029D16901D05B
:10039000014300E08143D16170470000001002403A
:1003A000044A0029916901D0014300E08143916131
:1003B000704700000010024010B501210420FFF733
:1003C000EFFF01218803FFF7EBFF01214804FFF74E
:1003D000DBFF0121BDE810408020FFF7E1BF0000F6
:1003E000214910B54B68214A13F00C0303D0042BAC
:1003F00001D0082B26D002604A681D4B02F0F002A3
:1004000012099C5C0268E24042604C6804F4E064BB
:10041000240A1C5D22FA04F484604C6804F46054DD
:100420004FEAD4241B5D22FA03F2C2604968104BE4
:1004300001F440414FEA91311B1F595CB2FBF1F1CD
:10044000016110BD4A684B68022402F4701204EB8B
:10045000924213F4803F02D04B689B0301D5054BB9
:1004600000E0024B5A43C6E70010024000127A0037
:100470006500002000093D00704700002148002170
:10048000026842F4803202604FF4A0630268491CA3
:1004900012F4003F01D19942F8D10168890330D5A7
:1004A00019490A6842F010020A600A6822F0030241
:1004B0000A600A6842F002020A60416841604168CD
:1004C0004160416841F480614160416821F47C11E0
:1004D0004160416841F4E8114160016841F0807178
:1004E000016001688901FCD5416821F00301416088
:1004F000416841F0020141604168C1F38101022974
:10050000FAD17047001002400020024070470000FE
:100510000C48016841F00101016041680A4A11403C
:1005200041600168094A11400160016821F480219D
:100530000160416821F4FE0141604FF41F018160B8
:10054000FFF79CBF001002400000FFF8FFFFF6FE1F
:1005500070B51E4C40F225552946204600F09AF809
:1005600098B1204600F028F9194B1A78194911441E
:10057000521C1A700870187817490978884204D1FB
:1005800000222946204600F0A4F840F227752946AB
:100590002646204600F07EF8002815D00F4C227821
:1005A0000F481044521C22700178304600F008F9C0
:1005B00020780C490978884206D129463046BDE8A2
:1005C0007040002200F085B870BD00000038014086
:1005D0000000002088000020600000205C00002057
:1005E000040000205E00002070B51E4C40F225552E
:1005F0002946204600F04EF898B1204600F0DCF87D
:10060000194B1A7819491144521C1A70087018783D
:1006100017490978884204D100222946204600F073
:1006200058F840F2277529462646204600F032F851
:10063000002815D00F4C22780F481044521C22700D
:100640000178304600F0BCF820780C4909788842DF
:1006500006D129463046BDE87040002200F039B886
:1006600070BD00000044004001000020B3000020E5
:10067000600000205D000020300000205F000020AE
:100680000029818902D041F4005101E021F4005198
:100690008181704770B501F01F0601220025C1F36A
:1006A000421302FA06F4012B0FD0022B0FD0838ADB
:1006B0004FEA11210088234202FA01F200EA020007
:1006C00001D000B10125284670BD8389F0E7038A77
:1006D000EEE710B5C1F3421301F01F040121A14060
:1006E000012B07D0022B07D01430002A026805D056
:1006F0000A4304E00C30F8E71030F6E78A43026062
:1007000010BD000030B50446008A85B00D464CF699
:10071000FF710840E98801432182A1894EF6F31058
:100720000140A8882A8910436A890A431043A0819E
:10073000A08A4FF6FF410840A9890143A18268467B
:10074000FFF74EFE1B48844201D1039800E0029857
:10075000A1890904002900EBC00101EB0010296800
:1007600002DA4FEA410101E04FEA8101B0FBF1F00A
:100770006422B0FBF2F14FEA01114FEA11136FF05E
:1007800018056B43A58900EB83004FF032032D045D
:1007900006D503EBC000B0FBF2F000F0070005E067
:1007A00003EB0010B0FBF2F000F00F0008432081D3
:1007B00005B030BD003801408088C0F308007047A4
:1007C000C1F3080181807047FEE702E008C8121FEC
:1007D00008C1002AFAD170477047002001E001C12A
:1007E000121F002AFBD17047FFF7E6FDFFF775FDEA
:1007F000FFF7E0FC344D4FF470712846FFF768FDB9
:1008000032494FF4E130324C086000208880C880C3
:10081000088188810C2048812046FFF773FF2D4E08
:100820002A493046FFF76EFF40F22557012239462C
:100830002046FFF74EFF40F227780122414620462E
:10084000FFF747FF012239463046FFF742FF0122FA
:1008500041463046FFF73DFF01212046FFF710FFDC
:1008600001213046FFF70CFF1B4C60782B28FCD38E
:1008700020782B28FCD3154917482B221031303013
:10088000FFF784FCA070114913482B223B31001D57
:10089000FFF77CFCE0704FF48076A078012802D04E
:1008A000A07810B105E0402100E080212846FFF744
:1008B0000DFDE078012802D0E0780028EDD1314626
:1008C0002846FFF703FDE8E7001C01407800002000
:1008D000003801400044004000000020FC080008EF
:1008E0000000002078000000CA0700087409000812
:1008F0007800002068040000DA070008000000000B
:10090000B4AEBFDAD6D0B6CFCAD5B7A2CABEC0FD84
:100910003A20B4AEBFDA31202D3E20B4AEBFDA3279
:100920002028D6D0B6CFCAD5B7A22900B4AEBFDA38
:10093000D6D0B6CFCAD5B7A2CABEC0FD3A20B4AE93
:10094000BFDA32202D3E20B4AEBFDA312028D6D017
:10095000B6CFCAD5B7A2290000002B2B2B02040664
:100960000800000000010203040102030406070856
:04097000090000007A
:0400000508000131BD
:00000001FF
